:100000000C943F010C945E010C945E010C945E0113
:100010000C945E010C945E010C945E010C945E01E4
:100020000C945E010C94D2090C94DE080C94A50982
:100030000C944B090C9478090C94B1080C941E098B
:100040000C945E080C945E010C9414040C945E01F4
:100050000C945A040C945E010C945E010C945E01A5
:100060000C945E010C945E010C945E010C945E0194
:100070000C945E010C945E010C945E010C945E0184
:100080000C945E010C945E010C945E0130303018CB
:1000900003041A30303030303009603030303030C6
:1000A0003071313030307A73617732303063786458
:1000B000653433303020766674723530306E626865
:1000C00067793630302C6D6A75373830302C6B6973
:1000D0006F303930302E2F6C3B702D303030273060
:1000E0005B3D303030300A5D305C3030303C303099
:1000F000303008303031303437303030302E323517
:1001000036381B30302B332D2A39303030303030F8
:1001100030301803041A303030303030096030305D
:100120003030303051213030305A53415740303028
:10013000435844452423303020564654522530300D
:100140004E424847595E30302C4D4A55262A3030B1
:100150003C4B494F302830303E3F4C3A505F3030B6
:100160003027307B2B303030300A7D307C303030DF
:100170003C3030303008303031303437303030308F
:100180002E323536381B30302B332D2A3930303073
:1001900030302563000D00256300256300256400D1
:1001A00025630030313233343536373839414243F4
:1001B0004445460000000100080040000001000422
:1001C0000000010008002000400080000001000441
:1001D000001F000000001F00001F101010101F0063
:1001E000001F181818181F00001F1C1C1C1C1F00C3
:1001F000001F1E1E1E1E1F00001F1F1F1F1F1F008F
:1002000003070F1F0F070300001F1F1F1F1F1F00E3
:100210001B1B1B1B1B1B1B00181C1E1F1E1C18005E
:100220000004040E0E1F1F00001F1F0E0E0404000A
:100230000000000000000000000E1915130E000061
:10024000000E1515150E0000000E1315190E0000F6
:10025000000E111F110E00001B5B25643B25644836
:10026000001B5B3F32356C001B5B3F323568001B67
:100270005B25646D001B5B324A001B630000112488
:100280001FBECFEFD0E1DEBFCDBF11E0A0E0B1E0F7
:10029000E0E8F9E100E00BBF02C007900D92A0304A
:1002A000B107D9F711E0A0E0B1E001C01D92A43B75
:1002B000B107E1F70E9476010C94BF0C0C9400008A
:1002C000B29BFECF80E020E030E0B299FECF283034
:1002D00031051CF4869599998068B29BFECF2F5FFB
:1002E0003F4F2A3031058CF3992708957F928F92E2
:1002F0009F92AF92BF92CF92DF92EF92FF920F93B5
:100300001F93CF93DF93CDB7DEB7C255D0400FB662
:10031000F894DEBF0FBECDBF17BA18BA14BA15BA1B
:100320000E94DC0460E875E280E090E00E94D9035E
:100330000E94FF090E94C50B8FE00E94720A85ECA3
:100340009AE00E9405058824CC24DD249924639634
:100350001FAE639777240DC085EC9AE00E940505D7
:100360000E941C0B0E94180B04C021E063962FAF63
:100370006397CE0101960E949104882309F462C01C
:1003800085EC9AE00E94050589818D3099F40894E6
:10039000C11CD11C34E0C316D10414F0CC24DD24DC
:1003A0006C2D80E00E94200B85EC9AE00E940505F0
:1003B000992448C0803208F445C085EC9AE00E9438
:1003C0000505898199279F938F9380EA91E09F93F8
:1003D0008F9381E08F930E945606839493940F909D
:1003E0000F900F900F900F908EE4881588F0E3E146
:1003F000E915B8F40894C11CD11CF4E0CF16D1045F
:1004000014F0CC24DD246C2D80E00E94200B08C069
:1004100020E5821631F40E941C0B0E94180B8824E0
:10042000992484E190E0C89EF001C99EF00DD89E09
:10043000F00D1124CE010196E80FF91FE90DF11D11
:1004400089818183B29995CF0E946001182F8AE03B
:1004500090E00E947007103F09F48BCF133889F4A5
:1004600085EC9AE00E940505892D99279F938F932B
:100470008DE991E09F938F9381E08F930E945606C0
:100480006DC0113041F585EC9AE00E940505AA2463
:10049000BB24C9C0F70181917F0199279F938F9356
:1004A0008AE991E09F938F9381E08F930E94560693
:1004B0000F5F1F4F0F900F900F900F900F9005310F
:1004C000110541F70894A11CB11CF4E0AF16B1046A
:1004D00009F44FCFA8C0193009F43ECF193509F4FB
:1004E00044CF123109F441CF183531F480E0772040
:1004F00009F481E0782E3DCF1636B1F59A948AEF53
:1005000093E00E940505992071F40894C108D10870
:10051000D7FE03C023E0C22ED12C6C2D84E10E94B3
:10052000200B94E1992E8A9480E10E94720A8AEF4E
:1005300093E00E940505E2EFF0E0E4918E2F992709
:100540009F938F9387E991E09F938F9381E08F939F
:100550000E94560685EC9AE00E9405050F900F90C8
:100560000F900F900F9005CF63962FAD63972130BA
:1005700019F031E0731649F4E12FFF27E15FFE4FD8
:10058000149163961FAE639705C0E12FFF27E457D0
:10059000FF4F14918EE48815E8F1EDE1E91570F450
:1005A0000894C11CD11CF4E0CF16D10414F0CC2463
:1005B000DD246C2D80E00E94200B99241A30F9F480
:1005C00024E0C216D10414F0CC24DD246C2D80E08C
:1005D0000E94200B8AEF93E00E94050585E991E0D7
:1005E0009F938F9381E08F930E9456060E941C0B6D
:1005F0000E94180B992410E00F900F900F908AEF33
:1006000093E00E940505812F99279F938F9382E99C
:1006100091E09ACF0E941C0B0E94180B8824CC24D6
:10062000DD249924A6CE82E0E82EF12CEC0EFD1EEE
:1006300084E190E0FC01AE9EC001AF9E900DBE9E95
:10064000900D1124E80EF91E00E010E023CFFC010C
:100650008FB7F89471836083538342831782168225
:10066000158214828FBF0895CF93DF93DC014FB7BB
:10067000F894EC018C819D81892B11F4E0E01CC081
:10068000FD0186819781ED91FC911197E80FF91F8B
:10069000E0810196ED019F838E832A813B81821741
:1006A000930720F0821B930B9F838E83ED018C8137
:1006B0009D8101979D838C834FBF8E2F9927DF915A
:1006C000CF910895FC014FB7F89484819581681704
:1006D0007907B0F486819781860F971F9783868369
:1006E000228133818217930720F0821B930B97831B
:1006F000868384819581861B970B9583848302C0B2
:10070000158214824FBF0895FC01CB014FB7F894B6
:100710002681378162817381820F931F0E946E0C44
:100720000190F081E02DE80FF91F80814FBF9927DC
:1007300008951F93CF93DF93EC01162F4FB7F894D2
:100740002C813D816A817B8126173707A0F48E8139
:100750009F81820F931F0E946E0CE881F981E80F40
:10076000F91F10838C819D8101969D838C834FBFDF
:100770008FEF90E003C04FBF80E090E0DF91CF911A
:100780001F910895FC018FB7F8948FBF82819381E8
:1007900024813581821B930B0895FC018FB7F89457
:1007A000158214828FBF08959093810180938001F8
:1007B0000895F3E0660F771F881F991FFA95D1F708
:1007C0009B01AC01220F331F441F551F60507C4D0D
:1007D0008B409F4F0E94820C2150304029B9232F1B
:1007E000332720939000089585E991E008958EE9DC
:1007F00091E00895982F809194018823E1F39CB9AA
:1008000010929401089510929A01109299010895FE
:100810008091990190919A01892B19F48FEF90E0C2
:10082000089580E090E008951F920F920FB60F9206
:1008300011242F933F934F935F936F937F938F93E5
:100840009F93AF93BF93EF93FF936CB1809180011F
:1008500090918101892B39F0E0918001F091810123
:10086000862F09950FC085E991E00E94990388239E
:1008700049F48091A6019091A70101969093A70158
:100880008093A601FF91EF91BF91AF919F918F91BE
:100890007F916F915F914F913F912F910F900FBE7C
:1008A0000F901F901895682F8EE991E00E94990390
:1008B000992708951F920F920FB60F9211242F932C
:1008C0003F934F935F936F937F938F939F93AF93D8
:1008D000BF93EF93FF9380919D01882371F08091E6
:1008E000A2019091A301892B31F08EE991E00E9441
:1008F00034038CB905C010929D018FEF8093940151
:10090000FF91EF91BF91AF919F918F917F916F91E7
:100910005F914F913F912F910F900FBE0F901F90BD
:100920001895CF93DF93EC018091970190919801F6
:10093000892B71F08091990190919A01892B41F056
:1009400085E991E00E94340388838FEF90E002C034
:1009500080E090E0DF91CF910895CF93DF93CDB702
:10096000DEB721970FB6F894DEBF0FBECDBFCE0124
:1009700001960E949104882319F48FEF9FEF02C023
:100980008981992721960FB6F894DEBF0FBECDBF9F
:10099000DF91CF91089540E450E060E071E085E997
:1009A00091E00E94270340E450E060E471E08EE9AA
:1009B00091E00E94270308950E94CB0410928101C8
:1009C0001092800188ED8AB960E875E280E090E0DD
:1009D0000E94D9038FEF8093940110929D01109291
:1009E000A7011092A601789408958FEF80939D013E
:1009F0008EE991E00E943403982F8091940188231E
:100A0000E1F39CB91092940108959093830180932F
:100A1000820108951F93182F8A3031F4E0918201EA
:100A2000F09183018DE00995E0918201F0918301BD
:100A3000812F09951F910895CF93DF93EC01892BA6
:100A400021F406C021960E940A0588818823D1F7E7
:100A5000DF91CF910895EF92FF920F931F93CF9361
:100A6000DF937A010097C9F0EC01680F791FC61770
:100A7000D70719F089918823D1F700E010E00AC068
:100A80008881882311F0219601C080E20E940A0526
:100A90000F5F1F4F0E151F0599F7DF91CF911F9123
:100AA0000F91FF90EF900895CF93DF93EC01892B86
:100AB00019F407C00E940A05FE012196849188233B
:100AC000C9F7DF91CF9108958AE00E940A05089541
:100AD000E82FFF27EF70F070ED55FE4FE4918E2F59
:100AE0000E940A0508951F93182F82958F700E9407
:100AF0006805812F0E9468051F9108950F931F9329
:100B00008C01812F99270E947305802F0E94730505
:100B10001F910F910895EF92FF920F931F937B0106
:100B20008C01C801AA27BB270E947E05C7010E942D
:100B30007E051F910F91FF90EF9008952F923F92A5
:100B40004F925F926F927F928F929F92AF92BF92DD
:100B5000CF92DF92EF92FF920F931F93CF93DF9389
:100B6000CDB7DEB7A2970FB6F894DEBF0FBECDBFEC
:100B700049A32AA327013801442351F017FF08C0D5
:100B8000EE24FF248701E418F5080609170902C0BE
:100B900083017201262E90E029A1211191E0322CCF
:100BA000391A3A9418A2A82EBB24A7FCB094CB2CD7
:100BB000DB2CC801B701A60195010E94820CFB0144
:100BC000EF70F070ED55FE4F64916F8FC801B70163
:100BD000A60195010E94820C79018A012FE1822EE3
:100BE000912C8C0E9D1E23C0C4010197E114F104C9
:100BF00001051105C1F04C01C801B701A60195011D
:100C00000E94820CFB01EF70F070ED55FE4F649175
:100C1000F4016083C801B701A60195010E94820C0E
:100C200079018A0104C04C012AA1FC0120833A9475
:100C30008FEF3816C9F699A19923D9F077FE05C030
:100C40008DE2F40182934F0114C0C4010197411455
:100C500051046104710419F04C018BE202C04C0193
:100C600080E2F401808305C0F40181914F010E946C
:100C70000A052A94FFEF2F16B9F7A2960FB6F8943B
:100C8000DEBF0FBECDBFDF91CF911F910F91FF90BF
:100C9000EF90DF90CF90BF90AF909F908F907F901C
:100CA0006F905F904F903F902F9008959F92AF92DA
:100CB000BF92CF92DF92EF92FF920F931F93CF9349
:100CC000DF93CDB7DEB722970FB6F894DEBF0FBE25
:100CD000CDBF9888C988DA88CE0143969A838983E4
:100CE00005C0882309F475C00E940A0596012F5F8C
:100CF0003F4F992021F0F6016901849103C0F6016C
:100D000080816901853269F72F5F3F4F992021F07B
:100D1000F6016901849103C0F6018081690184367E
:100D200009F44DC0883751F08336F1F6E981FA8134
:100D30003296FA83E98332978081D6CFE981FA81AE
:100D40003296FA83E98312910291E12C60E1F62E4A
:100D500050E1A52EB12C1EC0109501951F4F8DE2BC
:100D60000E940A0540E1E42E47E2F42E20E030E044
:100D70000BC0C7016AE070E00E946E0C7B012F5F20
:100D80003F4F2430310519F00E151F0590F33AE05E
:100D9000A32EB12CC801B7010E946E0CCB010E949A
:100DA0006805C801B7010E946E0C8C01C701B5012E
:100DB0000E946E0C7B01672B09F498CFEBCFE98181
:100DC000FA813296FA83E98312910291112354F643
:100DD000C3CF80E090E022960FB6F894DEBF0FBE3E
:100DE000CDBFDF91CF911F910F91FF90EF90DF90DA
:100DF000CF90BF90AF909F900895089583B7887F5C
:100E0000826083BF12BE87B7816087BF1092A8013E
:100E10001092A9011092AA011092AB0108958EB50B
:100E2000887F83608EBD1DBC1CBC87B7846087BF74
:100E3000089585B5887F846085BD14BC87B78064BC
:100E400087BF1092B0011092B1011092B2011092BE
:100E5000B301089593B7987F982B93BF08959EB5DB
:100E6000987F982B9EBD089595B5987F982B95BD3A
:100E70000895E3B7FF27E770F070EE0FFF1FEC5403
:100E8000FE4F859194910895EEB5FF27E770F070BD
:100E9000EE0FFF1FEC54FE4F859194910895E5B538
:100EA000FF27E770F070EE0FFF1FE054FE4F8591B3
:100EB00094910895883040F4E82FFF27EE0FFF1F2C
:100EC000EC57FE4F718360830895883040F4E82F1B
:100ED000FF27EE0FFF1FEC57FE4F1182108208957F
:100EE000DF92EF92FF920F931F937C01D2B6109284
:100EF000AC011092AD011092AE011092AF010E94B0
:100F000039079C014427552760E074E284EF90E0A4
:100F10000E94A40C293B8DE8380786E0480780E052
:100F2000580798F481E1E81687E2F80670F4B701F3
:100F3000882799270E944F0C28EE33E040E050E0CC
:100F40000E94820C79018A0123C000271127CA015F
:100F5000B90128EE33E040E050E00E94820CC80165
:100F6000B7010E944F0C7B018C0112C08091AC0133
:100F70009091AD01A091AE01B091AF0185B7837E94
:100F800085BF85B7806285BF889585B78F7D85BF12
:100F90008091AC019091AD01A091AE01B091AF01F3
:100FA00022B7BA2FA92F982F8827332744275527F0
:100FB000822B932BA42BB52BA80197012D0D311D4E
:100FC000411D511D82179307A407B50778F21F91A1
:100FD0000F91FF90EF90DF9008951092A80110926A
:100FE000A9011092AA011092AB0108956091A80185
:100FF0007091A9018091AA019091AB01089510927E
:10100000B0011092B1011092B2011092B301089593
:101010006091B0017091B1018091B2019091B301E2
:101020000895893031F48FB582608FBD8FB58E7F82
:101030000AC08A3019F48FB5826002C08FB58D7FE7
:101040008FBD8FB581608FBD1BBC1ABC19BC18BC8D
:1010500008952FB52E7F2FBD2FB522602FBD2EB541
:1010600028602EBD2EB520612EBD97BD86BD1BBC50
:101070001ABC19BC18BC08958FB580688FBD8FB598
:101080008F7B8FBD08958FB580628FBD8FB58F7EAA
:101090008FBD08958FB58F778FBD8FB58F7B8FBD37
:1010A00008958FB58F7D8FBD8FB58F7E8FBD0895CD
:1010B0009BBD8ABD089599BD88BD08951F920F926A
:1010C0000FB60F9211242F933F934F935F936F931B
:1010D0007F938F939F93AF93BF93EF93FF938091F1
:1010E000A8019091A901A091AA01B091AB0101962C
:1010F000A11DB11D8093A8019093A901A093AA01FD
:10110000B093AB018091AC019091AD01A091AE0183
:10111000B091AF010196A11DB11D8093AC019093D8
:10112000AD01A093AE01B093AF0180918401909185
:101130008501892B29F0E0918401F09185010995C1
:10114000FF91EF91BF91AF919F918F917F916F919F
:101150005F914F913F912F910F900FBE0F901F9075
:1011600018951F920F920FB60F9211242F933F9351
:101170004F935F936F937F938F939F93AF93BF939F
:10118000EF93FF938091860190918701892B29F03D
:10119000E0918601F09187010995FF91EF91BF9150
:1011A000AF919F918F917F916F915F914F913F91FF
:1011B0002F910F900FBE0F901F9018951F920F92B6
:1011C0000FB60F9211242F933F934F935F936F931A
:1011D0007F938F939F93AF93BF93EF93FF938091F0
:1011E000B0019091B101A091B201B091B30101960B
:1011F000A11DB11D8093B0019093B101A093B201E4
:10120000B093B30180918E0190918F01892B29F0C9
:10121000E0918E01F0918F010995FF91EF91BF91BF
:10122000AF919F918F917F916F915F914F913F917E
:101230002F910F900FBE0F901F9018951F920F9235
:101240000FB60F9211242F933F934F935F936F9399
:101250007F938F939F93AF93BF93EF93FF9380916F
:10126000920190919301892B29F0E0919201F091E4
:1012700093010995FF91EF91BF91AF919F918F914C
:101280007F916F915F914F913F912F910F900FBE82
:101290000F901F9018951F920F920FB60F92112466
:1012A0002F933F934F935F936F937F938F939F936E
:1012B000AF93BF93EF93FF93809188019091890141
:1012C000892B29F0E0918801F09189010995FF911E
:1012D000EF91BF91AF919F918F917F916F915F91AE
:1012E0004F913F912F910F900FBE0F901F90189527
:1012F0001F920F920FB60F9211242F933F934F938B
:101300005F936F937F938F939F93AF93BF93EF936D
:10131000FF9380918A0190918B01892B29F0E091B4
:101320008A01F0918B010995FF91EF91BF91AF91E7
:101330009F918F917F916F915F914F913F912F91ED
:101340000F900FBE0F901F9018951F920F920FB61F
:101350000F9211242F933F934F935F936F937F933B
:101360008F939F93AF93BF93EF93FF9380918C01E3
:1013700090918D01892B29F0E0918C01F0918D01E4
:101380000995FF91EF91BF91AF919F918F917F91BF
:101390006F915F914F913F912F910F900FBE0F90E2
:1013A0001F9018951F920F920FB60F9211242F9332
:1013B0003F934F935F936F937F938F939F93AF93DD
:1013C000BF93EF93FF938091900190919101892BAE
:1013D00029F0E0919001F09191010995FF91EF9131
:1013E000BF91AF919F918F917F916F915F914F913D
:1013F0003F912F910F900FBE0F901F901895E4E82A
:10140000F1E011821082329681E0E439F807C9F7E1
:101410000E94FE060E940F070E9419077894089503
:101420008FB58D7F8FBD8FB58E7F8FBD8FB58F7739
:101430008FBD8FB58F7B8FBD8FB58F7D8FBD8FB5E6
:101440008F7E8FBD08959298939894988A9A8B9ADC
:101450008C9A1ABA8FEF8BBB089592981ABA8FEFB5
:101460008BBB939A949A2CC09498000000000000C3
:10147000000000000000000000000000000000006C
:10148000000000000000000000000000000000005C
:10149000000000000000000000000000000000004C
:1014A0000000949A0000000000000000000000000E
:1014B000000000000000000000000000000000002C
:1014C000000000000000000000000000000000001C
:1014D000000000000000000000000000CF99C4CF11
:1014E000949808951F93182F0E942D0A929893980C
:1014F000949A8FEF8ABB1BBB000000000000000025
:1015000000000000000000000000000000000000DB
:1015100000000000000000000000000000000000CB
:1015200000000000000000000000000000000000BB
:1015300094981ABA8BBB1F9108950E942D0A1ABA6B
:101540008FEF8BBB9298939A949A00000000000052
:10155000000000000000000000000000000000008B
:10156000000000000000000000000000000000007B
:10157000000000000000000000000000000000006B
:10158000000089B39498992708951F93182F0E94FB
:101590002D0A929A9398949A8FEF8ABB1BBB0000F6
:1015A000000000000000000000000000000000003B
:1015B000000000000000000000000000000000002B
:1015C000000000000000000000000000000000001B
:1015D00000000000000094981ABA8BBB1F91089578
:1015E0000E942D0A1ABA8FEF8BBB929A939A949A03
:1015F00000000000000000000000000000000000EB
:1016000000000000000000000000000000000000DA
:1016100000000000000000000000000000000000CA
:10162000000000000000000089B3949899270895F5
:1016300082E00E94720A089581E00E94720A089571
:10164000623031F0633031F0613029F4805C03C0E6
:101650008C5E01C08C5A80680E94720A0895FF92C5
:101660000F931F93CF93DF93EC01162F042F0E944B
:101670009D0AF82E000F000F000F110F110F110F10
:10168000C10FD11D10E0802F810F80640E94720A6B
:10169000FE0184910E94C50A1F5F2196183099F7B8
:1016A000FFE7FF228F2D80680E94720ADF91CF91A1
:1016B0001F910F91FF9008950F931F93CF93DF9386
:1016C000EC01062F892B59F010E007C0FE01E10F55
:1016D000F11D80810E94C50A1F5F1017B9F7DF91C5
:1016E000CF911F910F910895BF92CF92DF92EF9209
:1016F000FF920F931F93B42E55279C01220F331F87
:10170000280F391F220F331F429FC001439F900DA6
:10171000529F900D11240E946E0C7B01002711270F
:10172000C801B70126E030E040E050E00E94820CA2
:10173000C62EDD2420C086E0D89E900111242B5FA8
:101740003F4FC901AA27BB2725503040E816F906AC
:101750000A071B0710F085E00BC0C901AA27BB27A9
:10176000E816F9060A071B0710F480E001C08C2D6B
:101770000E94C50AD394DB14F1F61F910F91FF90DC
:10178000EF90DF90CF90BF9008950F931F930E942A
:10179000230A88E30E94720A81E00E94720A80E6AE
:1017A0009AEE0E94FD0686E00E94720A8CE00E947A
:1017B000720A82E00E94720A80E80E94720A00EDBA
:1017C00011E040E060E0C8010E942F0B41E061E0C1
:1017D000C8010E942F0B42E062E0C8010E942F0B5B
:1017E00043E063E0C8010E942F0B44E064E0C801BD
:1017F0000E942F0B45E065E0C8010E942F0B46E0D8
:1018000066E0C8010E942F0B47E067E0C8010E9414
:101810002F0B1F910F91089577277F936F9399272F
:101820009F938F9388E592E09F938F9381E08F93AE
:101830000E9456068DB79EB707960FB6F8949EBFC6
:101840000FBE8DBF0895882319F088E692E002C08C
:1018500081E692E09F938F9381E08F930E945606DA
:101860000F900F900F90089599279F938F938FE675
:1018700092E09F938F9381E08F930E9456060F9082
:101880000F900F900F900F90089585E792E00E94BF
:10189000540508958AE792E00E9454050895629FD6
:1018A000D001739FF001829FE00DF11D649FE00D58
:1018B000F11D929FF00D839FF00D749FF00D659FB9
:1018C000F00D9927729FB00DE11DF91F639FB00DB8
:1018D000E11DF91FBD01CF0111240895AA1BBB1BF7
:1018E00051E107C0AA1FBB1FA617B70710F0A61B20
:1018F000B70B881F991F5A95A9F780959095BC0141
:10190000CD010895A1E21A2EAA1BBB1BFD010DC03B
:10191000AA1FBB1FEE1FFF1FA217B307E407F5079F
:1019200020F0A21BB30BE40BF50B661F771F881F7B
:10193000991F1A9469F760957095809590959B0111
:10194000AC01BD01CF01089597FB092E05260ED0ED
:1019500057FD04D0D7DF0AD0001C38F450954095CD
:10196000309521953F4F4F4F5F4F0895F6F7909573
:101970008095709561957F4F8F4F9F4F0895FFCF52
:00000001FF
